:020000040800F2
:10000000D8990024390400082B8F00089B78000839
:10001000298F0008F31C000855B4000800000000F8
:10002000000000000000000000000000790300084C
:10003000C521000800000000D5030008DD9D000870
:100040005704000857040008570400085704000824
:100050005704000857040008570400085704000814
:10006000570400085704000857040008391D000809
:10007000451D0008511D00085D1D0008691D000890
:10008000751D0008811D000857040008292200087A
:1000900057040008570400085704000857040008D4
:1000A00057040008570400085704000857040008C4
:1000B00057040008A99F00085704000857040008C7
:1000C000570400085704000857040008D594000896
:1000D000E1940008570400083DB4000849B4000842
:1000E000570400085704000800000000C19F0008E2
:1000F0005704000857040008570400085704000874
:100100005704000857040008570400085704000863
:1001100055A400085704000857040008B59F0008BC
:100120005704000857040008570400085704000843
:100130005704000857040008570400085704000833
:1001400000000000000000000000000000000000AF
:100150005704000857040008570400085704000813
:100160005704000857040008570400085704000803
:1001700057040008570400082D1D00085704000804
:1001800057040008570400085704000857040008E3
:1001900057040008570400085704000857040008D3
:1001A00057040008570400085704000857040008C3
:1001B00057040008570400085704000857040008B3
:1001C00057040008570400085704000857040008A3
:1001D0005704000857040008570400085704000893
:1001E0005704000857040008570400085704000883
:1001F0005704000857040008570400085704000873
:100200005704000857040008570400085704000862
:10021000570400089D9F0008570400085704000871
:1002200057040008570400085704000800000000A5
:100230005704000857040008000000005704000895
:1002400057040008E916000857040008570400087E
:100250005704000857040008570400085704000812
:100260005704000857040008570400085704000802
:100270005704000857040008570400080000000055
:100280005704000857040008570400080000000045
:10029000000000005704000800F002F800F05CF8CD
:1002A0000AA090E8000C82448344AAF10107DA45D1
:1002B00001D100F051F8AFF2090EBAE80F0013F0C7
:1002C000010F18BFFB1A43F00103184778ED000037
:1002D00098ED00000A444FF0000C10F8013B13F0B9
:1002E000070408BF10F8014B1D1108BF10F8015B8F
:1002F000641E05D010F8016B641E01F8016BF9D182
:1003000013F0080F1EBF10F8014BAD1C0C1B09D1D8
:100310006D1E58BF01F801CBFAD505E014F8016B4A
:1003200001F8016B6D1EF9D59142D6D370470000DC
:100330000023002400250026103A28BF78C1FBD8EE
:10034000520728BF30C148BF0B6070471FB50EF081
:10035000DCFB1FBD10B510BD00F01AFB1146FFF706
:10036000F5FF0CF06DFB00F038FB03B4FFF7F2FF74
:1003700003BC00F03BFB00002C4B19680868B0E898
:10038000F04F80F30988BFF36F8F4FF0000080F3C8
:10039000118870470000000008480068006880F37A
:1003A00008884FF0000080F3148862B661B6BFF38E
:1003B0004F8FBFF36F8F00DF00BF00BF08ED00E07D
:1003C000DFF80C00016841F470010160704700BF64
:1003D00088ED00E0EFF30980BFF36F8F134B1A68CD
:1003E0001EF0100F08BF20ED108A20E9F04F1060BA
:1003F00009B44FF0500080F31188BFF34F8FBFF363
:100400006F8F0DF05BFC4FF0000080F3118809BC8A
:1004100019680868B0E8F04F1EF0100F08BFB0EC84
:10042000108A80F30988BFF36F8F70471C02002485
:10043000EFF30580704700000A4880470A4880476C
:100440000A480047FEE7FEE7FEE7FEE7FEE7FEE7B5
:10045000FEE7FEE7FEE7FEE705480649064A074BCA
:10046000704700000D220008A59E000899020008B0
:10047000D8930024D8990024D8950024D895002436
:1004800053EA020C00F069802DE9F04B4FF00006B2
:10049000002B1FBFB3FA83F503FA05F424FA05F61F
:1004A0005E4012BF1643B2FA82F502FA05F4C5F1B6
:1004B00020051EBF22FA05FC44EA0C04203556EA4A
:1004C000044C4FEA144418BF641C4FF000084FF06E
:1004D0000009904271EB030C39D3002919BFB1FA1E
:1004E00081F701FA07F6B0FA80F700FA07F6C7F1CC
:1004F00020071EBF20FA07FC46EA0C062037B6FB91
:10050000F4FCA7EB0507103F07F01F0BCBF120060B
:100510000CFA0BFB2CFA06F644BFB3460026202F3C
:10052000A4BF5E464FF0000B5BEA060C08BF4FF01D
:10053000010B19EB0B09ABFB027C48EB0608C01B57
:1005400006FB02CC0BFB03CC71EB0C01C1E70B46A5
:10055000024641464846BDE8F08B13B54FF0000017
:100560004FF00001AFF30080BDE81C4070472DE95B
:10057000F04F9B4616464FF00109C1B02091009004
:10058000A9F1010920A85DF8295050F82900C5E01B
:100590004FEA6A0070432C185FEACA7100D1801BD1
:1005A0005A46214627182846904700280EDD304637
:1005B00046EA0501890765D022782978401E05F8AA
:1005C000012B04F8011BF7D1AD1BA41B5A46394679
:1005D00020469047002823DD5A4639462846904752
:1005E00000280EDD304646EA0501890751D03A78E9
:1005F0002978401E05F8012B07F8011BF7D1AD1B28
:10060000BF1B304646EA0401890749D03A78217871
:10061000401E04F8012B07F8011BF7D1A41BBF1BD8
:10062000314646EA0402B81B920740D0037822788C
:10063000491E04F8013B00F8012BF7D12C46871B1B
:10064000B84634445A464146204690470028F8DBD5
:100650005A464146BF1B384690470028F8DC3046D2
:1006600046EA0401A7424FEA81712ED931B33A78A4
:100670002178401E04F8012B07F8011BF7D1A41BB9
:10068000BF1BDEE722682968001F04C502C4F9D138
:100690009AE73A682968001F04C502C7F9D1AEE796
:1006A0003A682168001F04C402C7F9D1B6E703689D
:1006B0002268091F08C404C0F9D1BFE73A6821685D
:1006C000001F04C402C7F9D1D9E7E1B198F80020AE
:1006D0002178401E04F8012B08F8011BF6D1A21B5B
:1006E000501BB0FBF6F0401EAAEB0001491E8842E9
:1006F00016DD0A2910DD20AB4DF8295043F82900FA
:1007000009F1010918E0D8F800202168001F04C48D
:1007100048F8041BF7D1E2E70A2810DD824637E7E4
:100720000A2807DD4DF8292020AA42F8291009F1EE
:100730000109F3E70A2902DD15468A4628E7B9F1DF
:10074000000F7FF41DAF41B0BDE8F08F2DE9F047F9
:1007500099460F460646140039D0002F37D00A2F8D
:1007600001D9FFF704FF7F1E354607FB04582CE034
:100770002F46254400E03F1BB74205D34A46294691
:10078000384690470028F6DC44EA05003B1980070C
:100790000CD0002117E029180A1B0F6802E011682D
:1007A0001151121B9A42FAD2001D1751A0420CD2CD
:1007B000F1E76818027801E007780755001B9842B6
:1007C000FAD2491C0255A142F3D34545D0D3BDE826
:1007D000F087032A40F2308010F0030C00F01580FF
:1007E00011F8013BBCF1020F624498BF11F801CB34
:1007F00000F8013B38BF11F8013BA2F1040298BF99
:1008000000F801CB38BF00F8013B11F0030300F002
:100810002580083AC0F0088051F8043B083A51F8A6
:1008200004CBA0E80810F5E7121D5CBF51F8043BAB
:1008300040F8043BAFF30080D20724BF11F8013B1E
:1008400011F801CB48BF11F8012B24BF00F8013B80
:1008500000F801CB48BF00F8012B704710B5203AD3
:10086000C0F00B80B1E81850203AA0E81850B1E869
:100870001850A0E81850BFF4F5AF5FEA027C24BF1F
:10088000B1E81850A0E8185044BF18C918C0BDE816
:1008900010405FEA827C24BF51F8043B40F8043BDF
:1008A00008BF7047D20728BF31F8023B48BF11F894
:1008B000012B28BF20F8023B48BF00F8012B7047EE
:1008C00002F0FF0343EA032242EA024200F037B893
:1008D0004FF0000200B5134694469646203922BFD9
:1008E000A0E80C50A0E80C50B1F12001BFF4F7AF24
:1008F000090728BFA0E80C5048BF0CC05DF804EB06
:10090000890028BF40F8042B08BF704748BF20F873
:10091000022B11F0804F18BF00F8012B7047704771
:100920007047704710B500F02BF8006810BD10B587
:10093000044600F025F8046010BD4FF000020429C1
:10094000C0F0128010F0030C3FF4C4AFCCF1040CE3
:10095000BCF1020F18BF00F8012BA8BF20F8022B32
:10096000A1EB0C01FFF7B6BF5FEAC17C24BF00F822
:10097000012B00F8012B48BF00F8012B7047000045
:100980000048704774930024004870477493002413
:100990007546FFF7F9FFAE4605006946534620F05D
:1009A0000700854618B020B5FFF756FDBDE820408A
:1009B0004FF000064FF000074FF000084FF0000B1B
:1009C00021F00701AC46ACE8C009ACE8C009ACE8CE
:1009D000C009ACE8C0098D46704710B50446AFF3B6
:1009E00000802046BDE81040FFF7BFBC0149182039
:1009F000ABBEFEE72600020070470000B0B50388DA
:100A00000D88AB4256D145884C88A54252D11488F6
:100A1000A3424FD15488A5424CD105FB03FC436847
:100A200000254968B5EB9C0F506831D04FEA9C0215
:100A3000524200BF93ED000A91ED001A30EE010A18
:100A400003F1100E01F1100400F1100580ED000A11
:100A5000013293ED010A91ED011A30EE010A80EDA9
:100A6000010A93ED020A91ED021A30EE010A80EDBF
:100A7000020A93ED030A91ED031A30EE010A734660
:100A8000214680ED030A2846D4D1214628467346E4
:100A90001CF003020CD05242B3EC010AB1EC011A73
:100AA00030EE010A051D013280ED000A2846F3D11F
:100AB000002000E0FD2040B2B0BD018042804360D4
:100AC000704700002DE9F04F8BB0B0F800B0B0F8DF
:100AD00002E0F34540F051810B88FD229B4540F038
:100AE0004D814F88BB4240F04981BBF1000F436804
:100AF00000F029816FF003004C6800EB8B08CDF803
:100B00001CE0002700934FF07E5906945E46204675
:100B1000BBEB060009D0B9002046FFF7D9FE002044
:100B20000130874204F10404FAD104F1040AC4F844
:100B30000090751E10D0A8EB87015046FFF7C8FE45
:100B4000012054460130864204F10404FAD1002DFC
:100B500007F101072E46DBD1BBF1000F009BDDF84A
:100B60001CE000F0F0800420CDF814B000EB8E0003
:100B700001901846ABF1010603EB8E044FEA8E029A
:100B80001D1DCEF10001002308919FED800A7746DC
:100B9000814600BF5B4580F0F58003FB0EF0B0EEB0
:100BA000403A09EB80010A9191ED001A0699B0EEE6
:100BB000414A01EB800009902146304606E000BF23
:100BC00091ED004A0138B0EE423A1144B5EEC04A08
:100BD000F1EE10FA0ADDB4EEC34AB0EE442AF1EEAB
:100BE00010FAD8BFB0EE432A09E000BFB1EE442AA4
:100BF000B4EEC23AF1EE10FA01DBB0EE432A00285F
:100C0000DED1B5EE402AF1EE10FA00F0BB80B0EE76
:100C1000C13AB4EE423AF1EE10FA1CBFD84310EBE1
:100C20000B0004D0002000BF01308642FCD1B5EE9D
:100C3000401AF1EE10FA00F0A580CDE90346AEEBC4
:100C4000030C0A99BCF1010F4FF07E5008600AD0E6
:100C50000120294691ED002A82EE012A01308742C7
:100C6000A1EC012AF6D1DDE9080100BF91ED002ACF
:100C700082EE012A0C1D013081ED002A2146F5D1BA
:100C8000ACF1010B05994FF00008DDF818A04846BB
:100C9000CDF80890984505D100EB8C060AEB8E0A3A
:100CA00033E000BF90ED001A0A9CB0EE413ABBF170
:100CB000000F94ED002A01EE423A00F1040680EDA7
:100CC000003A15D00120002406EB040905EB040EC0
:100CD00099ED002A9EED003A01EE432A0130874249
:100CE00004F1040489ED002AEED12644DDF81CE06D
:100CF000DDE908049AED002A94ED003A01EE432A5A
:100D000004340130AAEC012AF4D106EB8300013946
:100D100008F10108BED1DDF80890013F049E09F1F9
:100D20000409039C03F101030198A6F101060444A0
:100D3000DDF814B005447FF42DAFB5EE401A009BEA
:100D4000F1EE10FA20D10EFB0BF1002000294FF03C
:100D500000020BD093ED000AB5EE400AF1EE10FA56
:100D600004D101328A4203F10403F3D38A4208BF5B
:100D70006FF004000BB0BDE8F08FFD2250B20BB055
:100D8000BDE8F08FFB22F9E70022F7E70000000042
:100D90002DE9F04F88B0B0F802C00B889C4540F0B8
:100DA0008880B0F800E013889E4540F08280B1F85A
:100DB0000290538899457CD14FEA9C04476804FB14
:100DC00009F049680CF00305029101EB0010019055
:100DD00000202CF00303A0EB9C0107EB8306079196
:100DE0004FEA89035168C5F1000A00919FED330A6B
:100DF000CDE9039CCDE9050E0099CE4601EB8008B4
:100E0000DDE901BC002CB0EE401AE146384627D09F
:100E1000624607993846B0EE401A00BF92ED002AAC
:100E200090ED003A03EE021A1A4490ED014A92ED59
:100E3000002A04EE021A1A4490ED025A92ED002A9A
:100E400005EE021A1A4490ED036A92ED002A06EEAE
:100E5000021A013100F110001A44DFD1D9463046A0
:100E600055B1514690ED002A99ED003A02EE031A71
:100E7000043001319944F5D108F1040088ED001ADD
:100E8000BEF1010E0CF1040C0BF1040B8046B9D13C
:100E9000DDF80C900598DDF810C04844DDF818E046
:100EA00007EB8C07BEF1010E06EB8C06A2D10020E9
:100EB00000E0FD2040B208B0BDE8F08F0000000067
:100EC000B0B503880D88AB4256D145884C88A54201
:100ED00052D11488A3424FD15488A5424CD105FB6E
:100EE00003FC436800254968B5EB9C0F506831D07E
:100EF0004FEA9C02524200BF93ED000A91ED001AA6
:100F000030EE410A03F1100E01F1100400F110055A
:100F100080ED000A013293ED010A91ED011A30EEE5
:100F2000410A80ED010A93ED020A91ED021A30EEBA
:100F3000410A80ED020A93ED030A91ED031A30EEA7
:100F4000410A7346214680ED030A2846D4D1214642
:100F5000284673461CF003020CD05242B3EC010A3F
:100F6000B1EC011A30EE410A051D013280ED000A94
:100F70002846F3D1002000E0FD2040B2B0BD0000C3
:100F80002DE9F04F83B002884B889A424DD14488B6
:100F90000B889C4249D10023D1F804804FEA940C7D
:100FA000416804F0030ECDF80080A3EB9404029492
:100FB000140196000194CEF1000B4046BCF1000FE5
:100FC0001ED04746029C00BF08683D463860374443
:100FD000486807EB0609A85101F11000D1F808A0F4
:100FE000013447F806A009EB0607C968374449F8F9
:100FF00006100146E8D101996C18014603E000BFD4
:10100000009800EB8304BEF1000F07D05D4600BFDF
:1010100051F8040B013520603444F9D10133013A11
:1010200008F10408CAD1002000E0FD2040B203B05E
:10103000BDE8F08F80ED090A9FED060A5FF0000120
:1010400000EB8102491C82ED000A032982ED030AAC
:10105000F6DB70470000000080ED090A9FED080AEA
:101060005FF0000100EB8102491C82ED000A82ED75
:10107000030A82ED060A032982ED0A0AF2DB7047B1
:10108000000000009FED0A0A002210B500EB820369
:1010900001EB820483ED000A83ED030AD4ED000A1C
:1010A000521CC3ED060A032A83ED0A0AEEDB10BDCB
:1010B000000000002DE9FF4F9A460F4606462DED31
:1010C000020B2DED0A8B8DB0F0EE40BA0DF10C0B3A
:1010D000D0ED098A9FEDAFAA9FEDAFCA0024F7EECD
:1010E00000AAB6EE00BA002C7ED0012CFCD007EB93
:1010F000840106EB840091ED000AD0ED060A80ED34
:10110000060AA64870EE600A80EEA88A80ED008A82
:1011100007EB84020AEB840192ED000AD1ED000A8C
:101120000BEB840006EB840530EE609AF2EE000AC9
:1011300080ED009A95ED000A09EE280A0AF05AFDA2
:10114000FAEE000A0AF032FD954A06ABF0EE400ACC
:1011500003EB8403C5ED000A02EB840983ED008AEA
:10116000D9ED001AB0EE480A02F10C0101EE890A2D
:1011700001EB840809A898ED001A00EB840001EE49
:10118000200AF0EE4C0A80ED000A01F1300000EB7D
:101190008400F0EE409A90ED000A0AF007FDCAEED6
:1011A000800A7F4895ED031A303000EB840090ED03
:1011B000000A7B48483000EB840060EE800AB0EE05
:1011C000410A69EEA00A4AEE410A00EEA80A85ED3E
:1011D000030AD0ED00CAF0EE6C0A0AF00BFDF1EE46
:1011E0006C0A0AF0E3FC00E0C5E085ED030AF0EECE
:1011F00040CA29EE8B0A0BF08DF96948F1EE6C0AB2
:10120000183000EB840399ED002AD3ED002A0C304E
:1012100000EB8402684642EEC00A22EE480A98EDCE
:10122000001AD2ED001A00EB840001EE490A41EEEB
:10123000E90A641C032C30EE200A80ED000AFFF658
:1012400052AF9FED588A9DED000AF0EE480A0AF071
:10125000D1FCDFED558AF0EE680A0AF0A7FC8DEDAF
:10126000000A9DED010AF0EE480A0AF0C3FCF0EE18
:10127000680A0AF09BFC8DED010A9DED020AF0EE72
:10128000080A0AF0B7FCF8EE080A0AF08FFC9FED96
:10129000471A9FED478ADFED470A8DED020A30EECF
:1012A000010A20EE080A0AF081FCB0EE409AB0EE86
:1012B0006B0A0AF0D9FAF0EE408AB0EE6B0A0BF036
:1012C00041F8C8EE092ADDED001AF0EE400A9DED66
:1012D000011A21EEA82A61EEA01A9FED370A00EE4E
:1012E000812A48EEC11A62EE800A20EE820A60EE80
:1012F000A18A0AF001FAB0EE409AB0EE680A0AF04C
:10130000FBF9DFED2E9AF0EE408AB0EE490AF0EEDE
:10131000690A0AF06FFC9FED2AAAF0EE4A0A0AF069
:1013200045FCB0EE409AF0EE690AB0EE680A0AF0A9
:1013300061FCF0EE4A0A0AF039FCF0EE408AB0EEA9
:10134000490A0AF091FAF0EE409AB0EE680A0AF003
:101350008BFA9DED021A69EE800A0DB021EE081A93
:1013600081EE200AF0EE680AB0EE491ABDEC0A8B55
:1013700006B0BDE8F08F1B9807EB840191ED000AE1
:1013800000EB840006EB840190ED008A81ED060AF3
:10139000BEE60000CDCC4C3DBD378635880100242B
:1013A00044EC0008A470EB41A470EBC1C3F51C41F0
:1013B0006666C63FBB49F3409A99193FCDCCCC3EF7
:1013C000CDCCCCBE2DE9F04FB5EEC00A1D46174678
:1013D0002DED088BF1EE10FA89B0884606469FED98
:1013E000658AD0ED098A15D85FF0000006EB800110
:1013F000401C81ED008A032881ED038AF6DBB0EE04
:10140000480AF0EE400AB0EE401A09B0BDEC088B75
:10141000BDE8F08F0DF1180AE9460DF10C0B9FEDB8
:10142000569A0024B3EE02AAF2EE08AA08EB840151
:1014300007EB840291ED000AD2ED000A09EB84016A
:1014400006EB840070EE600AB1EE041AC1ED000AEA
:1014500090ED000A00EEA80AF9EE040A80ED000AF9
:101460000BF006FA454A05EB840380ED000A02EB17
:10147000840CD3ED000ADCED001A91ED002A0C3249
:1014800002EB840241EE820A92ED001A3B4A0AEB1B
:101490008401303202EB840241EE000A022CC1EDDD
:1014A000000A92ED001A90ED030A61EE200A0AFE8E
:1014B0002A1A49EE400A00EEA80AF1EE410A80ED30
:1014C000030A0BF0D5F980ED030AD1ED009AB0EED6
:1014D00040BAB0EE690A0BF01DF82848F0EE400A59
:1014E000183000EB8401B1EE4B0AD1ED001A0C303C
:1014F00000EB840001EEE00A90ED001A0BEB840093
:10150000641C032C01EE690A80ED000A8EDBD5ED28
:10151000000AB9EE062A9DED003ADDED012A95EDAF
:10152000010A68EE606A10EE823A50EE022A95EDEA
:10153000021A26EE802AB0EE0C5ADDED023ADDEDFD
:10154000035A01EE452A9DED046A9DED054ADFED43
:101550000C1A33EE250A72EE860A32EE631ADFEDBC
:10156000094A20EE210A60EEA10A31EE041A21EEAA
:10157000241A4AE7000000008FC2F53C08EC00087E
:101580000AD7A33D8FC2F53D0D494FF47A7206E0AC
:10159000012804D0022806D0032808D00AE00B68EE
:1015A00002205A63F4E70B6803209A63F0E70B68A4
:1015B0000420DA630B681A64401C0428E8DD7047D5
:1015C0003C4500249FED3F2ADFED3F2AF0B522EE97
:1015D000000A9FED3E3A414F0024414DB0EE402AB3
:1015E00002EEE00A02EEA02A2DED048B85B06E46D5
:1015F0009FED378AF0EE400AF0EE423A42EE810A61
:1016000042EEC13A02EE812A02EEC10A9FED319A02
:10161000DFED318A43EE610A43EE613A03EE212A9F
:1016200003EE210ACDED000ACDED013A8DED022A3F
:101630008DED030A06EB840090ED000AB5EEC00ABA
:10164000F1EE10FA03D29FED270A80ED000A0AF0AE
:1016500043FFF0EE490AB0EE601A00EE081ABCEE45
:10166000C10AB0EE681A10EE100A80B200EE100A3D
:10167000B8EE400A0BF0FCF8BCEEC00A07EB4401E0
:1016800010EE100A80B2088564B1012C0ED0022C35
:1016900010D0032C12D0641C042CCBDB05B0BDECA5
:1016A000048BF0BD296848630124C3E72968886377
:1016B0000224BFE72968C8630324BBE729680864DC
:1016C000ECE7000036AE47448B7999450050C3459E
:1016D0009A99A9400080894400C0F3444C3E0024FC
:1016E0003C45002400000000014801F0C3BA00009E
:1016F000F041002410B51A4CB0EE401A2DED028BCB
:10170000D4ED000A9FED178AF5EEC00AF1EE10FA4B
:1017100020D081EE200ADFED140A0AF0E7FAF7EE96
:10172000002ADFED120A32EEC00A9FED112AD4ED35
:10173000021A9FED101A60EE200A21EE820A0E496D
:1017400000EE810A84ED020AF0EEC00A10EE900A63
:10175000884201DAB0EE480ABDEC028B10BD0000F1
:101760002801002400000000B1DC423E002A2D4781
:10177000CDCC4C3FCDCC4C3E8FC2F53C10B51A4C75
:10178000B0EE401A2DED028BD4ED010A9FED178AC1
:10179000F5EEC00AF1EE10FA20D081EE200ADFED5E
:1017A000140A0AF0A3FAF7EE002ADFED120A32EE6D
:1017B000C00A9FED112AD4ED031A9FED101A60EEB6
:1017C000200A21EE820A0E4900EE810A84ED030A06
:1017D000F0EEC00A10EE900A884201DAB0EE480A34
:1017E000BDEC028B10BD00002801002400000000A9
:1017F000B1DC423E002A2D47CDCC4C3FCDCC4C3EF7
:101800008FC2F53C38B5B62204467E2100F064FA5A
:10181000642002F0D3F801236A460021204600F03C
:101820002CF89DF80010502901D0002038BD20462A
:1018300000F02EF8032220461C2100F04DFA0A2069
:1018400002F0BCF8032220461D2100F045FA0A20D0
:1018500002F0B4F8042220461F2100F03DFA0A20CD
:1018600002F0ACF8332220461B2100F035FA4FF489
:101870007A7002F0A3F8012038BD3EB514248DE83B
:101880001C0001230A46EC2102F09AFD3EBD000037
:1018900010B5152331212DED028B86B06A46FFF776
:1018A000ECFFFAEE000AB0EE000A0AF01FFABDF8EB
:1018B0000000774C00EE900AF8EE600A80EE801A85
:1018C000F3EE0E0AB0EE000A84ED001A0AF00EFAEA
:1018D000BDF802009FED6F8A00EE900AF8EE600AF4
:1018E00080EE801AF0EE480AB0EE000A84ED011A8C
:1018F0000AF0FCF99DF9040000EE900AF8EEE00A07
:1019000080EE801AF2EE0C0AB0EE000A84ED021AA4
:101910000AF0ECF9BDF9050000EE900AF8EEE00AD5
:1019200070EEC08AF3EE040AB0EE000A0AF0DEF9A7
:10193000C8EE800AB0EE000AC4ED030AF2EE0C0A0B
:101940000AF0D4F9BDF9070000EE900AF8EEE00ABB
:1019500070EEC08AF3EE0D0AB0EE000A0AF0C6F986
:10196000C8EE800AC4ED040ADFED4B0AB0EE000AAF
:101970000AF0BCF99DF9090000EE900AF8EEE00AC1
:1019800080EE801A84ED051ADFED440AB0EE000AFD
:101990000AF0ACF99DF90A0000EE900AF8EEE00AB0
:1019A00080EE801AF8EE080AB0EE000A84ED061AFE
:1019B0000AF09CF9BDF80B0000EE900AF8EE600A00
:1019C00080EE801AF1EE080AB0EE000A84ED071AE4
:1019D0000AF08CF9BDF80D0000EE900AF8EE600AEE
:1019E00080EE801AF2EE000AB0EE000A84ED081ACA
:1019F0000AF07CF99DF90F0000EE900AF8EEE00A7B
:101A000080EE801AF2EE0E0AB0EE000A84ED091A9A
:101A10000AF06CF99DF9100000EE900AF8EEE00A69
:101A200080EE801AF0EE480AB0EE000A84ED0A1A41
:101A30000AF05CF9BDF9110000EE900AF8EEE00A38
:101A400080EE801AF0EE480AB0EE000A84ED0B1A20
:101A50000AF04CF99DF9130000EE900AF8EEE00A46
:101A600080EE801ADFED0E0AB0EE000A84ED0C1A4B
:101A70000AF03CF99DF9140000EE900AF8EEE00A35
:101A800080EE801A84ED0D1A06B0BDEC028B10BDFD
:101A9000CC19002400004042000000420000144223
:101AA0000000824270B5012314460D4606462DED16
:101AB000028B86B0032105AAFFF7DFFE9DF8140014
:101AC000800649D51422062103A88DE807000123CA
:101AD00030460422EC2102F073FCE8BB0399DDF8E8
:101AE0000F0031F07F4320F07F416DD000EE901A5F
:101AF000364800EE103AF8EE600AD0ED002A90ED7C
:101B0000012AB8EE406A70EEE20AB8EE403AF8EE0A
:101B1000401AB8EE404A22EE200A60EEA00A90ED8C
:101B2000021A63EE032A00EE810A62EEA14A80EDFA
:101B30000E0A84ED000A20EE001A90ED082AD0ED7E
:101B4000091A90ED078AD0ED047AD0ED053A90EDB0
:101B50000A3A90ED037A00E036E062EE002A21EEC8
:101B6000212A61EE001A61EE233A38EE228A67EEEE
:101B7000802AD0ED0B0AD0ED0C5AD0ED066A77EE34
:101B8000222A21EE833A61EEA61A45EE800A72EE11
:101B9000A32A26EE061A38EE022A90ED0D5A72EEAE
:101BA000A11A21EE200A32EE032A012061EE840AF6
:101BB00004EE850A72EE200A30EE800A85ED000AF6
:101BC00006B0BDEC028B70BD0020F9E7CC190024F3
:101BD000F0B5002406462DED028B83B0DFED1A8AA6
:101BE000B0EE688A02F030FB054640F6B8370FE0E9
:101BF00001AA69463046FFF755FF20B19DED000A66
:101C0000641C38EE008A142001F0D8FE642C04DA3B
:101C100002F01AFB401BB842EAD30C48002C08DD46
:101C200000EE104AB8EEC00AC8EE000AC0ED000A85
:101C300003E09FED070A80ED000AC0ED028A03B0C1
:101C4000BDEC028BF0BD0000000000002801002464
:101C500080E6C547F0B5002406462DED028B83B023
:101C6000DFED1A8AB0EE688A02F0EEFA054640F619
:101C7000B8370FE001AA69463046FFF713FF20B1DD
:101C80009DED000A641C38EE008A142001F096FED7
:101C9000642C04DA02F0D8FA401BB842EAD30C48AC
:101CA000002C08DD00EE104AB8EEC00AC8EE000AAB
:101CB000C0ED010A03E09FED070A80ED010AC0EDC7
:101CC000038A03B0BDEC028BF0BD000000000000F1
:101CD0002801002480E6C54717B583B014240123EA
:101CE00005AA8DE81C000A46EC2102F01BFC06B098
:101CF00010BDFEE703460020024610B503E09C5CE1
:101D00006040521CD2B28A42F9D310BD10B5806B2C
:101D1000816C496D022906D0012180F83510C16C13
:101D200041F04001C16400F07FFB10BD014800F0AC
:101D30007DBB0000E03F0024014800F09BBF000095
:101D400030400024014800F095BF0000004400240A
:101D5000014800F08FBF000078440024014800F0E3
:101D600089BF000064490024014800F083BF0000DF
:101D7000EC480024014800F07DBF0000DC4900244D
:101D8000014800F077BF000074480024294A016828
:101D900091423AD0274A1832914236D0254A303201
:101DA000914232D0234A483291422ED0214A6032A9
:101DB00091422AD01F4A7832914226D01D4A903251
:101DC000914222D01B4AA83291421ED01A4A914217
:101DD0001BD0194A1832914217D0174A303291421B
:101DE00013D0154A483291420FD0134A60329142C3
:101DF0000BD0114A7832914207D00F4A903291426B
:101E000003D00D4AA832914211D1CAB21823103A18
:101E1000B2FBF3F26FF30901032A02F00703074A4A
:101E2000D25CC26500D9091D81650846704721F062
:101E3000FF01F9E71000024010040240A4ED000881
:101E400030B5224A012301689142CAB21BD01F4C0F
:101E50001434A14217D01D4C2834A14213D01B4C7E
:101E60003C34A1420FD0194C5034A1420BD0174C36
:101E70006434A14207D0154C7834A14203D0134CEE
:101E80008C34A1420CD11421114C083AB2FBF1F16F
:101E90000F4A803201F01F0504EB8101AB4010E0D6
:101EA0000C4D1824103A0D44B2FBF4F1A82D00D8C3
:101EB0000831094A01F01F0402EB8101064AA340E0
:101EC0008032603080E80E0030BD000008540258B7
:101ED00000580258F0FBFDBF0008024010B502791F
:101EE000531E072B2DD8174C0168A1421BD0154C4F
:101EF0001434A14217D0134C2834A14213D0114CF2
:101F00003C34A1420FD00F4C5034A1420BD00D4CA9
:101F10006434A14207D00B4C7834A14203D0094C61
:101F20008C34A14203D10849074C443102E00749EF
:101F3000064C443104EB8202C0E91B210121994087
:101F4000416710BD08540258FC580258FC08024072
:101F500010B583694FF0C074826A0146002053B106
:101F6000B3F5005F15D072B1012A0CD0022A0AD055
:101F7000032A09D104E01AB1012A06D0022A03D1AA
:101F8000C96AC90100D5012010BDC96AA142FAD0B1
:101F900010BD002AF7D0012AF2D0022AF3D0032A7A
:101FA000F3D010BD2DE9F04F804E804FDFF8FC914B
:101FB0001836DFF8F8A148370468856D0AF1300A51
:101FC000DFF8ECB14C45DFF8ECC1DFF8ECE16DD0A7
:101FD000B4426BD0544569D0BC4267D0DFF8D081A1
:101FE000A8F11808444561D05C455FD064455DD0D8
:101FF00074455BD0DFF8C481444557D0DFF8BC811D
:1020000008F11808444551D0DFF8B08108F13008D4
:1020100044454BD0DFF8A48108F14808444545D039
:10202000DFF8988108F1600844453FD0DFF88C81E3
:1020300008F17808444539D0DFF8808108F190082C
:10204000444533D0DFF8748108F1A80844452DD009
:10205000DFF86C81444529D0DFF8648108F1140869
:10206000444523D0DFF8588108F1280844451DD0A5
:10207000DFF84C8108F13C08444517D0DFF8408177
:1020800008F15008444511D0DFF8348108F16408A4
:1020900044450BD0DFF8288108F17808444505D085
:1020A000DFF81C8108F18C08444509D1D0E91948B2
:1020B000C4F80480C46E1CB1D0E91C48C4F8048084
:1020C00004684C452ED0B4422CD054452AD0BC4292
:1020D00028D0374E183EB44224D05C4522D0644507
:1020E00020D074451ED0354EB4421BD0334E183626
:1020F000B44217D0314E3036B44213D02F4E48364A
:10210000B4420FD02D4E6036B4420BD02B4E7836F1
:10211000B44207D0294E9036B44203D0274EA83699
:10212000B44215D190F85C603F2406F01F06B4401D
:10213000AC600468256825F4802525602EE09A604F
:102140000068C160BDE8F08F99600068C260F9E77F
:102150001B4EB4421BD01A4E1436B44217D0184E40
:102160002836B44213D0164E3C36B4420FD0144E2B
:102170005036B4420BD0124E6436B44207D0104EE3
:102180007836B44203D00E4E8C36B442DAD190F891
:102190005C60012406F01F06B4406C600468636054
:1021A0008368402B0368CFD1C9E7000010000240CC
:1021B00088000240A0000240B80002401004024023
:1021C000085402587047000070B50E4C4FF4FA6581
:1021D00020684563206885632068C56320680564BE
:1021E000284601F0EBFB216868104863216888638A
:1021F0002168C863216808642846BDE8704001F082
:10220000DDBB00003C45002472B6FEE705480549E9
:102210000839026842F00202026008688004FCD5B6
:10222000704700000C480258014801F0DDBB000077
:10223000A8400024F0B503684FF6FC716D4C426B6A
:10224000D3F884508D4345EA8205C3F8845003686F
:1022500053F8845F068F25F47F0545EA06451D6027
:10226000836B654D9F180268D2F888308B4343EA30
:102270008703C2F88830026852F8883F868F23F4BB
:10228000FE0343EA06431360066856F8A03FC26B9C
:102290008B4307EB420243EA82033360076857F837
:1022A000A03FB0F8406023F4FE0343EA06433B60DE
:1022B000D0E9103603FB06220368D3F8B0608E43E2
:1022C00046EA8206C3F8B0600368B0F84860D3F805
:1022D000B07027F4FE0747EA0646C3F8B060D0E9BD
:1022E0001267036806FB0722D3F8AC608E4346EA08
:1022F0008206C3F8AC60D0E91467036806FB0722C6
:10230000D3F8F0608E4346EA8206C3F8F0600368B3
:10231000B0F85860D3F8F07027F47C1747EA064607
:10232000C3F8F0600368876D53F8C06F02EB470293
:102330008E4346EA820119600168B0F85C20D1F84A
:10234000C03023F47C1343EA0242C1F8C020016884
:1023500090F86020D1F8C03023F07C5343EA026249
:10236000C1F8C020416B04EB8101C166826B01EBB7
:1023700082020267C36B02EBC3024267D0E91034EA
:10238000634302EB83028267D0E91234634302EBBA
:102390008302C267D0E91434634302EB8302C0F8BE
:1023A0008020836D02EBC303C0F88430C46D826E5D
:1023B000544303EB8403C0F88830046E544303EBAA
:1023C0008402C0F89020AA420AD9D0F89C200321A8
:1023D00042F02002C0F89C2080F898100120F0BD47
:1023E000002200E004C1D0F890308B42FAD80020DF
:1023F000F0BD000000AC0040FCD3004000B589B047
:10240000064924226846FEF729FA054800216A4653
:102410000AF0A0FC0349886009B000BD4CED00083B
:10242000D9960008B8010024704770472DE9F041A3
:1024300004460068234F0426056969070BD54661E9
:10244000E06C40F00200E06484F83560A06C076541
:10245000A06C00F0CDFAA8070DD5216802204861D4
:10246000E06C40F00100E06484F83560A06C076522
:10247000A06C00F0BDFAE80605D52168102048617F
:10248000204600F06FF8280705D52168082048612C
:10249000204600F0FBF8E80712D0206801688907A1
:1024A00003D5C16821F01E01C16020680121C26806
:1024B00022F00102C260206841612046FFF7B5FFAB
:1024C000BDE8F0810D1D00082DE9F041040003D0A6
:1024D00094F8350018B105E00120BDE8F0812046F0
:1024E00000F042F8A16902204FF0000E84F8350098
:1024F00009B1C4F824E02068194A0168114001605C
:10250000D4E90452E168D4E9010C29431043A269DB
:10251000084354F8201B40EA0C001043B4E8E810CC
:102520000A68184328433043384340EA0C001043FC
:10253000086054F8300C343C102805D12268E17F43
:10254000E06961F31F60906120680121C26842F078
:102550001E02C260C4F84CE084F835100020BCE7CD
:1025600007F0E0FF70470000F0B587B00646142181
:102570006846FEF7ADF93D493068884273D13C4862
:10258000016841F001010160006800F00100059060
:102590003748001D016841F010010160016801F039
:1025A00010010591016841F001010160016801F02D
:1025B00001010591016841F008010160016801F025
:1025C00008010591016841F00201016000680224E0
:1025D0000025694600F00200059073200D278DE864
:1025E00031002448CDE9035701F00CFD4FF4CA60D7
:1025F00069468DE831002048CDE9035701F002FD1E
:10260000082069468DE831001C48CDE9035701F0E8
:10261000F9FC802069468DE831001948CDE903575F
:1026200001F0F0FC174C4B2117484FF4807C021549
:1026300084E823001701C4E9035283142046C4E947
:1026400007C56562C4E9053700F088FE08B1FFF7E9
:10265000DBFDB46400220521A6634E2002F03CF9A4
:102660004E2002F02BF907B0F0BD00000000024838
:10267000DC4402580010025800000258000C0258B6
:10268000000402583040002410000240704700004F
:102690002DE9F84F044601F0D7FD00903CB194F8C5
:1026A0003500022806D0802161650020E4E0012089
:1026B000BDE8F88FC74DC74EC6491835206830367B
:1026C000DFF81483DFF814938842DFF814A3DFF8EF
:1026D00014B32ED0A8422CD0B0422AD0404528D0E6
:1026E000484526D0504524D0584522D0BD4A1832FE
:1026F00090421ED0BC4A90421BD0BB4A1832904236
:1027000017D0B94A3032904213D0B74A483290427B
:102710000FD0B54A603290420BD0B34A7832904223
:1027200007D0B14A9032904203D0AF4AA8329042CB
:1027300009D1026822F01E0202602068426922F07C
:102740008002426103E0026822F00E020260276804
:102750008F4238464DD0A8424BD0B04249D0404578
:1027600047D0484545D0504543D0584541D09D4A73
:10277000183290423DD09C4A90423AD09A4A183240
:10278000904236D0984A3032904232D0964A4832FF
:1027900090422ED0944A603290422AD0924A7832A7
:1027A000904226D0904A9032904222D08E4AA8324F
:1027B00090421ED08D4A90421BD08C4A14329042D7
:1027C00017D08A4A2832904213D0884A3C3290422D
:1027D0000FD0864A503290420BD0844A64329042E5
:1027E00007D0824A7832904203D0804A8C32974296
:1027F00004D1206E026822F480720260754920685C
:10280000884228D0A84226D0B04224D0404522D0C9
:10281000484520D050451ED058451CD0714918312C
:10282000884218D07049884215D06F4918318842C3
:1028300011D06D49303188420DD06B494831884202
:1028400009D069496031884205D0674978318842AA
:1028500001D065499031016821F0010101600EE06D
:1028600001F0F2FC0099401A052808D9202262657F
:102870000321002084F8351084F8340017E7386805
:10288000C007EDD1534A0121206890422ED0A842C2
:102890002CD0B0422AD0404528D0484526D05045BB
:1028A00024D0584522D04F4B183398421ED04E4B5F
:1028B00098421BD04C4B1833984217D04A4B3033B8
:1028C000984213D0484B483398420FD0464B603360
:1028D00098420BD0444B7833984207D0424B903308
:1028E000984203D0404BA833984208D194F85C70CA
:1028F0003F23A06D07F01F07BB40836007E094F8FB
:102900005C30A06D03F01F0301FA03F343602068FD
:1029100090424DD0A8424BD0B04249D0404547D01C
:10292000484545D0504543D0584541D02D4A1832EE
:1029300090423DD02C4A90423AD02B4A18329042D5
:1029400036D0294A3032904232D0274A483290421B
:102950002ED0254A603290422AD0234A78329042C3
:1029600026D0214A9032904222D01F4AA83290426B
:102970001ED01E4A90421BD01C4A1432904217D0DF
:102980001A4A2832904213D0184A3C3290420FD053
:10299000164A503290420BD0144A6432904207D00B
:1029A000124A7832904203D0104A8C3290420BD1B6
:1029B000D4E919024260E06E30B1026822F48072FC
:1029C0000260D4E91C024260002084F8351084F8CB
:1029D00034006DE6100002405800024070000240D2
:1029E00088000240A000024010040240085402582F
:1029F0002DE9F05F28B190F83510022904D080212C
:102A000041650120BDE8F09F904C904B0168183C57
:102A100018338E4ADFF83C92A1428D4CDFF838E241
:102A20008E4FDFF83CB2DFF83CA28F4D8F4E31D095
:102A300091422FD099422DD0A1422BD0494529D087
:102A4000714527D0B94225D0DFF810C20CF1180C1F
:102A500061451FD0DFF808C2ACF1600C614519D0A8
:102A6000DFF8FCC1ACF1480C614513D0DFF8F0C1D0
:102A7000ACF1300C61450DD0DFF8E4C1ACF1180CBD
:102A8000614507D0594505D0514503D0A94201D031
:102A9000B1422CD1DFF8B4C14FF0040880F8358082
:102AA000ACF1180C61451DD091421BD0994219D050
:102AB000A14217D0494515D0714513D0B94211D064
:102AC0006648183081420DD065486038814209D08F
:102AD00063484838814205D061483038814201D08E
:102AE0005F481838086820F001000860ABE0D1F8B2
:102AF00000C02CF00E08DFF854C1C1F80080ACF122
:102B0000180C0168614527D0914225D0994223D005
:102B1000A14221D049451FD071451DD0B9421BD0DB
:102B2000DFF838C10CF1180C614515D0DFF830C161
:102B3000ACF1600C61450FD0DFF824C1ACF1480C5A
:102B4000614509D0DFF818C1ACF1300C614503D004
:102B5000DFF80CC1ACF1180CD1F800C02CF0010C5E
:102B6000C1F800C0DFF8E4804FF0010C0168A8F163
:102B70001808414546D0914244D0994242D0A142E2
:102B800040D049453ED071453CD0B9423AD0334A55
:102B90001832914236D0324A603A914232D0304AAD
:102BA000483A91422ED02E4A303A91422AD02C4AAD
:102BB000183A914226D0594524D0514522D0A942F5
:102BC00020D0B1421ED02A4A91421BD0284A14324A
:102BD000914217D0264A2832914213D0244A3C32DF
:102BE00091420FD0224A503291420BD0204A643297
:102BF000914207D01E4A7832914203D01C4A8C324F
:102C0000914218D1016E0A6822F480720A6090F82D
:102C10005C20816D02F01F020CFA02F24A60D0E9DA
:102C200019124A60C16E31B10A6822F480720A60DA
:102C3000D0E91C124A600022016D80F835C080F88E
:102C4000342001B188470020DCE600002800024063
:102C5000580002407000024088000240A00002407C
:102C60007004024088040240A0040240B8040240FC
:102C7000085402582DE9FC5F0446F74E0020DFF8A7
:102C8000D88300904FF41652F44808F11808A56D47
:102C9000DFF8C493DFF8C0A3016809F130092068A8
:102CA0000AF1480AB1FBF2F1B04201912F68D5F860
:102CB00000C0DFF8ACB335D04146884232D0484539
:102CC00030D050452ED058452CD0E5491831884297
:102CD00028D0E3493031884224D0E1494831884244
:102CE00020D0E04988421DD0DE491831884219D0F1
:102CF000DC493031884215D0DA494831884211D058
:102D0000DFF860E30EF1600E70450BD0D54A7832E3
:102D1000904207D0D34B9033984203D0D149A83189
:102D200088427DD194F85C20082102F01F0201FA4C
:102D300002F23A424AD0B04232D0404530D0484503
:102D40002ED050452CD058452AD0C54A1832904232
:102D500026D0C34A3032904222D0C14A48329042F3
:102D60001ED0C04A90421BD0BE4A1832904217D0A3
:102D7000BC4A3032904213D0BA4A483290420FD007
:102D8000B84A603290420BD0B64A7832904207D0AF
:102D9000B44A9032904203D0B24AA832904203D152
:102DA000026802F0040202E0026802F008026AB15E
:102DB000026822F00402026094F85C0000F01F0038
:102DC0008140A960606D40F00100606594F85C008E
:102DD000012100F01F008140394240D02068B042FC
:102DE00034D0404532D0484530D050452ED058459B
:102DF0002CD09B4A1832904228D0994A30329042C7
:102E000024D0974A4832904220D0964A90421DD012
:102E1000944A1832904219D0924A3032904200E0DF
:102E2000AFE113D08F4A483290420FD08D4A6032C2
:102E300090420BD08B4A7832904207D0894A903228
:102E4000904203D0874AA83290427DD1406910F069
:102E5000800F04D0A960606D40F00200606594F8B6
:102E60005C00042100F01F00814039423ED0206800
:102E7000B04232D0404530D048452ED050452CD0BD
:102E800058452AD0764A1832904226D0744A3032B9
:102E9000904222D0724A483290421ED0714A9042EB
:102EA0001BD0704A1832904217D06E4A303290428E
:102EB00013D06C4A483290420FD06A4A6032904236
:102EC0000BD0684A7832904207D0664A90329042DE
:102ED00003D0644AA83290424ED1006810F0020F2D
:102EE00004D0A960606D40F00400606594F85C0057
:102EF000102100F01F008140394258D02068B042B4
:102F000034D0404532D0484530D050452ED0584579
:102F10002CD0534A1832904228D0514A3032904235
:102F200024D04F4A4832904220D04E4A90421DD081
:102F30004C4A1832904219D04A4A3032904215D049
:102F4000484A4832904200E014E00FD0454A6032CF
:102F500090420BD0434A7832904207D0414A903297
:102F6000904203D03F4AA832904207D1006800F057
:102F7000080006E0006872E70068B7E7006800F044
:102F80000400A0B1A96020680168490304D5006865
:102F9000000308D5A16C07E00168C90503D40168E6
:102FA00021F008010160216C09B12046884794F89E
:102FB0005C00202100F01F008140394279D0206858
:102FC000B04232D0404530D048452ED050452CD06C
:102FD00058452AD0224A1832904226D0204A303210
:102FE000904222D01E4A483290421ED01D4A904242
:102FF0001BD01C4A1832904217D01A4A30329042E5
:1030000013D0184A483290420FD0164A603290428C
:103010000BD0144A7832904207D0124A9032904234
:1030200003D0104AA832904203D1006800F010008B
:1030300002E0006800F00200B0B3A96094F8350027
:103040000428206801680FD049037ED5006800037A
:103050002BD4616C2AE0000010000240140200240E
:10306000700002401004024021F016010160206847
:10307000416921F080014161206C08B9A06C20B148
:103080002068016821F00801016094F85C303F215C
:10309000012003F01F0300229940A96084F8350045
:1030A00084F83420216D65E003E0E16B09B120462E
:1030B0008847606D00287DD0606DC00759D02068BA
:1030C000042184F83510B0422BD0404529D0484522
:1030D00027D0504525D0584523D09D49884220D03F
:1030E0009B49183188421CD099493031884218D008
:1030F0009849884215D097491831884211D095498E
:10310000303188420DD093494831884209D09149E5
:103110006031884205D08F497831884201D08D498D
:103120009031016821F00101016020680099019A45
:10313000491C0091914202D80168C907F6D1006884
:10314000C00710D003200FE0FFE70168C905ACD429
:1031500003680121002223F01003036084F8351076
:1031600084F83420A1E7012084F83500002084F899
:103170003400E16C00291DD002B02046BDE8F05FAC
:103180000847754988421DD073491431884219D0C7
:1031900071492831884215D06F493C31884211D09D
:1031A0006D49503188420DD06B496431884209D055
:1031B000694900E084E07831884203D066498C3167
:1031C00088427DD194F85C800427016808F01F08CC
:1031D00007FA08F717EA0C0F009746D04F0744D5B7
:1031E00000980F04686003D5C8033CD4A16CC1E704
:1031F000880638D42068B0422DD0554960398842BD
:1032000029D0484527D0504525D0584523D050498E
:10321000884220D04E49183188421CD04C49303168
:10322000884218D04B49884215D04A491831884203
:1032300011D04849303188420DD046494831884242
:1032400009D0704507D0904205D0984203D041493B
:10325000A831884203D1016821F0080102E0016829
:1032600021F004010160216C84E7022707FA08F7C6
:1032700017EA0C0F00974ED08F074CD500980F041B
:10328000686003D5C80344D4616C73E7880640D4F2
:103290002068B0422FD02E49603988422BD0484553
:1032A00029D0504527D0584525D02949884222D0D9
:1032B0002749183188421ED025493031884200E024
:1032C00044E018D02349884215D022491831884259
:1032D00011D02049303188420DD01E4948318842F2
:1032E00009D0704507D0904205D0984203D01949C3
:1032F000A831884203D1016821F0140102E001687D
:1033000021F00A010160012184F83510002084F8C1
:103310003400E16B2EE7082202FA08F212EA0C0FE1
:1033200014D0090712D5016821F00E01016094F84C
:103330005C100120002201F01F0100FA01F1696018
:10334000606584F8350084F8342012E7BDE8FC9FFE
:103350008800024010040240085402582DE9F05F32
:10336000044600F071FF002C07467DD0E34E022199
:1033700020684FF00308DFF888934FF00005DFF86E
:1033800084A3B042DFF880B334D0DC4A18329042D4
:1033900030D048452ED050452CD058452AD0DA4A56
:1033A0001832904226D0D84A3032904222D0D64AA3
:1033B000483290421ED0D54A90421BD0D34A183290
:1033C000904217D0D14A3032904213D0CF4A48327F
:1033D00090420FD0CD4A603290420BD0CB4A783227
:1033E000904207D0C94A9032904203D0C74AA832CF
:1033F00090427DD184F83510B04284F834502ED0FC
:10340000BE49183188422AD0484528D0504526D098
:10341000584524D0BC491831884220D0BA493031AF
:1034200088421CD0B8494831884218D0B7498842F0
:1034300015D0B6491831884211D0B449303188428C
:103440000DD0B2494831884209D0B0496031884234
:1034500005D0AE497831884201D0AC49903101683D
:1034600021F00101016008E027E100BF00F0ECFE5F
:10347000C01B052801D920211CE120680068C00775
:10348000F4D104F108002168D4E9053C8E4685C8D2
:1034900009681043D4E907281F43636A38439C4FE7
:1034A00040EA0C001043394040EA0800042B40EA8F
:1034B000010003D1D4E90B1211430843954909686F
:1034C0006FF30F01B1F1005F0FD36168A1F1290221
:1034D000052A08D9163A032A05D9083A012A02D939
:1034E0004F39032901D840F48010CEF8000000E0E5
:1034F00023E02068676A4069042F20F0070047EA4C
:1035000000070DD1D4E90A01074349B12046FEF76F
:103510001FFD28B140206065012184F83510CCE002
:10352000206847612046FEF731FC94F85C203F217B
:1035300002F01F029140816054E0774A90421BD014
:10354000754B1433984217D0734B2833984213D0DD
:10355000714B3C3398420FD06F4B503398420BD095
:103560006D4B6433984207D06B4B7833984203D04D
:10357000694B8C3398427DD184F8351084F83450EF
:10358000664B0168A26801EA030E402A73D0802AC4
:1035900072D00022D4E90378D4E9053142EAD70297
:1035A00042EAD8085C4AD4E9077C48EAD30848EAEA
:1035B000D10141EAD701524241EA1C11142341EAE8
:1035C0000E01016020681044B0FBF3F08000E0655C
:1035D0002046FEF7DBFB94F85C20012102F01F027D
:1035E000914041602068B04257D044491831884228
:1035F00053D0484551D050454FD058454DD0424901
:103600001831884249D040493031884245D03E493E
:103610004831884241D03D4988423ED03B4918312B
:1036200088423AD039493031884236D0374948311A
:10363000884232D03549603188422ED033497831C2
:1036400088422AD031499031884226D02F49A8316A
:10365000884222D0304988421FD02F4914318842F5
:103660001BD02D492831884217D02B493C31884244
:1036700013D002E01DE017E018E0274950318842DE
:103680000BD025496431884207D0234978318842DC
:1036900003D021498C31884229D12046FEF7D0FB46
:1036A000A06880280CD00CE0102273E74FF4804211
:1036B00070E74021616584F835800120BDE8F09F06
:1036C0006560216E20790860D4E919014160606865
:1036D000401E072808D82046FEF700FCE06E056073
:1036E000D4E91C01416002E0E566256765670120B9
:1036F000656584F835000020E0E700001000024016
:103700004000024058000240700002401004024095
:103710003F8010FE0010005C085402580F00FEFFAE
:103720002DE9F84F04008C464FF00000009014D0B3
:1037300094F83400012812D094F83550012000216B
:1037400084F83400012D0CD0C00260650120009087
:1037500084F834100098BDE8F88F0120FBE70220C0
:10376000F9E78C4D0226206884F83560A8428A4D1E
:1037700061658A4E8A4FDFF82C82DFF82C92DFF8E1
:103780002CA2DFF82CB226D0A84224D0B04222D0FE
:10379000B84220D040451ED048451CD050451AD0D4
:1037A000584518D08349884215D08249183188423B
:1037B00011D08049303188420DD07E49483188424D
:1037C00009D07C496031884205D07A4978318842F5
:1037D00001D078499031016821F001010160614612
:1037E0002046FEF7DFFB6B49206888422CD0A842B8
:1037F0002AD0B04228D0B84226D0404524D04845EF
:1038000022D0504520D058451ED06A4A90421BD045
:10381000684A1832904217D0664A3032904213D02C
:10382000644A483290420FD0624A603290420BD0D4
:10383000604A7832904207D05E4A9032904203D07C
:103840005C4AA83290420CD1026822F01E0242F07B
:1038500016020260206C88B12068026842F00802FB
:103860000BE0026822F00E0242F00A020260206CB5
:1038700020B12068026842F0040202602068884299
:103880004BD0A84249D0B04247D0B84245D040457D
:1038900043D0484541D050453FD058453DD0454A9A
:1038A00090423AD0434A1832904236D0414A3032A0
:1038B000904232D03F4A483290422ED03D4A603248
:1038C00090422AD03B4A7832904226D0394A9032F0
:1038D000904222D0374AA83290421ED0364A9042B7
:1038E0001BD0354A1432904217D0334A28329042C6
:1038F00013D0314A3C3290420FD02F4A503290427E
:103900000BD02D4A6432904207D02B4A7832904235
:1039100003D0294A8C3290420DD1206E0268D20326
:1039200003D5026842F480720260E06E18B102684A
:1039300042F4807202602068884226D0A84224D0D7
:10394000B04222D0B84220D040451ED048451CD0BD
:1039500050451AD0584518D01649884215D01549F7
:103960001831884211D01349303188420DD01149A5
:103970004831884209D00F496031884205D00D494D
:103980007831884201D00B499031016841F0010142
:103990000160DFE6100002402800024040000240C3
:1039A000580002407000024088000240A00002401F
:1039B000B8000240100402400854025870B5044692
:1039C00000F042FC0546601C02D004480078044424
:1039D00000F03AFC401BA042FAD370BD080200245C
:1039E00070477047704770472DE9FF5FDFF80CB3F1
:1039F00004460BF10401DBF8000025680F68AA46B5
:103A00008007D5F85090696DD5F850806E6D2A6D9D
:103A1000D5F854C02B6D00EA8770009009F4704906
:103A20006F6D286D01EA09010191DAF85410DAF896
:103A30005490DAF8505008F00F0806EA080602968B
:103A400002F0F00203F071536FEA09061F4000F024
:103A500060700CEA020CCDF80CC0F20501EA000916
:103A60000CD4E843C00509D400214FF48073CAF890
:103A70005030CBF800102046FFF7B5FF700512D488
:103A8000E84340050FD4206800234FF48068D0F845
:103A9000DC20D0F8E410C0F85080CBF800301140A2
:103AA000204600F0AAFADFF858A2009850B1226828
:103AB000830F00EA0A001065CBF800302046009919
:103AC000FFF78EFF019850B12268830F00EA0A00C9
:103AD0001065CBF800302046019900F090FA02986A
:103AE00050B12268830F00EA0A001065CBF800305D
:103AF0002046029900F079FA039850B12268830FAA
:103B000000EA0A001065CBF800302046039900F067
:103B10006DFA30050CD4E843000509D42368002071
:103B20004FF400621A65CBF80000204600F068FAF6
:103B3000B00512D4E84380050FD4206800234FF469
:103B40000078D0F8D820D0F8E010C0F85080CBF83A
:103B500000301140204600F051FA30030CD4E84305
:103B6000000309D4236800204FF400221A65CBF823
:103B70000000204600F038FAF0030CD4E843C003FC
:103B800009D4236800204FF480321A65CBF8000076
:103B9000204600F031FA70030CD4E843400309D406
:103BA000226800204FF480231365CBF800002046E4
:103BB00000F021FAB0030FD4E84380030CD423684B
:103BC00000204FF400321A65CBF80000D4F89C00B6
:103BD00040F08000C4F89C00B9F1000F0BD02268BF
:103BE0004FEA997309EA0A001065CBF8003049469C
:103BF0002046FFF7F7FE5FB12268BB0F07EA0A0015
:103C00001065CBF80030D4F89C003843C4F89C0011
:103C10003C492068884268D1606881468068800796
:103C200063D0D9F82060D9F82410D9F82080D9F8C9
:103C30002400D9F820C0D9F82470D9F82030D9F858
:103C40002450D9F8202003F4FC4306F00F0AD9F8D9
:103C500024601D40D9F824B008F030080CF4C07C72
:103C600002F4F02211EA0A0100EA080807EA0C0748
:103C700006EA0206D9F820A004D0C9F82010204690
:103C800000F0B6F9B8F1000005D06168086241465D
:103C9000204600F0AFF96FEA0B0040060ED46FEA41
:103CA0000A0040060AD460684021C36BC26B0162FF
:103CB0002046190C02F03F0200F09BF92FB160681A
:103CC00007623946204600F092F935B16068056216
:103CD000D4F89C002843C4F89C0036B160680662A2
:103CE000D4F89C003043C4F89C00D4F89C00002811
:103CF00002D02046FFF775FEBDE8FF9F10A80040E8
:103D0000FFFFCF3F00A000402DE9F04194B08D4966
:103D10004C2204466846FCF7A1FD64B18A4D206838
:103D2000A84202D100F58070606094F898004FF0CE
:103D3000000820B108E0012014B0BDE8F081204661
:103D400084F8998000F002F92068816921F010015F
:103D5000816100F079FA0327064604E000F074FA66
:103D6000801B0A2811D8206880690007F6D42068D3
:103D7000816941F00101816100F066FA06460DE0BB
:103D800000F062FA801B0A2808D9D4F89C0040F0A1
:103D90000100C4F89C0084F89870CCE72068806922
:103DA000C007EDD02068816941F002018161207C6B
:103DB00001282068816937D041F040018161607C31
:103DC00001282068816932D021F480418161A07C82
:103DD0000128206881692DD041F4805181612068DB
:103DE000A268816921F44071114381612068816971
:103DF00021F0A40181612068016921F010010161B5
:103E0000E068012819D010B302281BD0206881690E
:103E100041F0800181612068016941F01001016178
:103E2000E06803280ED012E021F04001C6E741F41B
:103E30008041CBE721F48051D0E72068816941F0CF
:103E4000040103E02068816941F020018161207E46
:103E50006FF0FF02D4E90773A68A1102400602EB55
:103E60000727A0F10070384327685B1E184301EB59
:103E700006463043F861A068B0F5407F11D104F1E7
:103E80002800A68C6FF00F0C89C801EB0641401E7C
:103E900002EB0322104322680CEB0713184308437C
:103EA000D060206E30B12068626ED0F8C01011432F
:103EB000C0F8C010D4E917126846D14209D0216871
:103EC000A36E51F8C82F50F8233022F007021A438E
:103ED0000A60216C49B12168626C51F8BC3F50F80E
:103EE000226023F0070232430A60A16C51B12168BD
:103EF000E36C51F8BC2F50F8233022F0700242EAF4
:103F000003120A60216D51B12168626D51F8BC3F06
:103F100050F8220023F4E06242EA002008602068A2
:103F2000A84204D16068816821F003018160C4F86F
:103F300094800121C4F89C8084F898102046FEF7F4
:103F400079F9F9E6BCED000800A0004010B5B6B064
:103F50000446142130A8FCF7BBFCC0216846FCF7DE
:103F6000B7FC1E492068884235D100204FF400413B
:103F7000CDE900104A0368461C9200F05FFE08B1CC
:103F8000FEF742F91648016841F48071016000684B
:103F900000F48070359012480C38016841F001013E
:103FA000016000680923022200F001003590002022
:103FB0004FF4C051309130A9CDE93120CDE9330320
:103FC000084800F01FF800220621132000F084FCAE
:103FD000132000F073FC36B010BD000000A00040BC
:103FE000EC44025800000258704770477047704711
:103FF0007047704770477047704770477047704709
:10400000704700002DE9F84F03247D4D00234FF049
:1040100001094FF0B04B4FF00F0AE9E009FA03F73E
:104020003A4076D00E7906F00306012E01D0022E1A
:1040300018D1D0F808C04FEA430ECE6804FA0EF843
:104040002CEA080C06FA0EF646EA0C068660D0F852
:1040500004C00E792CEA070CC6F300169E4046EA0F
:104060000C0646600E79F643B6070BD0C6684FEAD9
:1040700043088F6804FA08FC26EA0C0607FA08F7DA
:104080003743C7600E7906F00306022E12D1DE0810
:104090000F694FEA437C00EB8606B646366A4FEA64
:1040A000DC6C0AFA0CF807FA0CF726EA0806374324
:1040B000CEF820700F7906684FEA430807F003072F
:1040C00004FA08FC07FA08F726EA0C0637430760EB
:1040D0004E6816F4403F1CD04A4E376847F002073E
:1040E000376036689F0706F00206009623F0030645
:1040F00006F1B046B6463F0FD6F80864DFF80881EF
:104100000AFA07FC404526EA0C0603D14FF0000CE2
:1041100041E06CE0DFF8F4C0604502D14FF0010CE3
:1041200039E0DFF8ECC0604502D14FF0020C32E01C
:10413000DFF8E0C0604502D14FF0030C2BE0DFF860
:10414000D8C0604502D14FF0040C24E0DFF8CCC0A9
:10415000604502D14FF0050C1DE0DFF8C4C060459A
:1041600002D14FF0060C16E0DFF8B8C0604502D16E
:104170004FF0070C0FE0DFF8B0C0604502D14FF000
:10418000080C08E0DFF8A4C0604502D14FF0090C2C
:1041900001E04FF00A0C0CFA07FC4CEA060CCEF8D2
:1041A00008C44F68DBF80060FF0226EA020600D56B
:1041B00016435F46CBF80060D1F804C0DBF804601A
:1041C0005FEA8C2C26EA020600D516437E606E68F4
:1041D0004F6826EA0206BF0300D516436E602E68BC
:1041E0004F6826EA0206FF0300D516432E605B1CCB
:1041F0000A6832FA03F67FF411AFBDE8F88F0000C9
:1042000080000058F444025800000258000402588C
:1042100000080258000C02580010025800140258FE
:1042200000180258001C02580020025800240258AE
:104230000AB1816170470904FBE70000014800688A
:10424000000C70470010005C014880687047000057
:104250000802002430B590F84120202A24D190F89B
:104260004020012A20D0012380F84030242280F809
:104270004120202300240268156825F001051560FF
:104280000268156825F480551560026815680D43AD
:10429000156001680A6842F001020A6080F8413046
:1042A00080F84040002030BD022030BD30B590F88D
:1042B0004120202A22D190F84020012A1ED001233B
:1042C00080F84030242280F8412020240025026814
:1042D000136823F0010313600268136823F470630A
:1042E00043EA0121116001680A6842F001020A6094
:1042F00080F8414080F84050002030BD022030BDA1
:1043000070B5040004D094F84100002510B106E017
:10431000012070BD204684F8405000F0AFF9242001
:1043200084F841002068016821F001010160D4E9AE
:10433000001020F0706008612068816821F400415D
:104340008160E06821680128A06830D040F4044012
:104350008860E0680228206841682BD021F4006161
:10436000416020682021154A436813434360206858
:10437000C26822F40042C26054F8106B0DCC1043A6
:1043800040EA0320F06054F81C3CD4E900021043DA
:10439000186054F81C0D026842F001020260656466
:1043A00084F84110256384F84250002070BD40F429
:1043B0000040CDE741F40061D2E700000080000238
:1043C0002DE9FF4F83B0044690F841009A4693468A
:1043D000DDE91087DDF84890202874D15FEA0800F5
:1043E00014D09FB194F8400001286CD0012084F8CB
:1043F0004000FFF729FF0122064619230090D10350
:10440000204603F061FB002871D103E04FF40070F7
:1044100060646CE00025C4F82480222184F84110F7
:10442000402084F8420065646785534665635A46B8
:1044300004992046CDE9009603F0CAFA10B184F839
:10444000405054E0618DFF2734484FF08078FF29B9
:104450004FF0007A04D927853A464346009005E09C
:10446000618D53462185009094F8282020460499B8
:1044700003F012FB00224B4604212046009603F075
:1044800023FBA0BB2068616A406A0870606A401C18
:104490006062208D401E81B22185608D401E608546
:1044A000608DD8B1D1B900224B46802120460096BC
:1044B00003F00AFBD8B9608DFF2805D927853A4655
:1044C0004346009506E026E0608D53462085009522
:1044D00094F828202046049903F0DEFA608D002825
:1044E000C8D132464946204603F02CFB18B10120C2
:1044F00007B0BDE8F08F21682020094AC861216813
:104500004B6813404B6084F8410084F8425000200F
:1045100084F84050ECE70220EAE700000024008025
:1045200000E800FE2DE9FF4F83B0044690F84100FB
:104530009A469346DDE91087DDF84890202871D12E
:104540005FEA080014D09FB194F84000012869D0B8
:10455000012084F84000FFF777FE01220646192368
:104560000090D103204603F0AFFA00286ED103E09B
:104570004FF40070606469E00025C4F824802121B4
:1045800084F84110402084F84200656467855346F2
:1045900065635A4604992046CDE9009603F04AFA2D
:1045A00010B184F8405051E0608DFF274FF08078C3
:1045B000FF284FF0007A04D927853A4643460095F4
:1045C00005E0608D53462085009594F8282020460C
:1045D000049903F061FA32464946204603F0DEFAB8
:1045E000A0BB606A216800788862606A401C6062D3
:1045F000608D401E6085208D401E80B22085618DBB
:10460000D9B1D0B900224B4680212046009603F054
:104610005BFAD8B9608DFF2805D927853A4643460D
:10462000009506E026E0608D53462085009594F8BD
:1046300028202046049903F02FFA608D0028CAD163
:1046400032464946204603F07DFA18B1012007B0F2
:10465000BDE8F08F20682021074AC16120684368C7
:104660001340436084F8411084F84250002084F8DD
:104670004050ECE70220EAE700E800FE2DE9F041B7
:10468000B6B00646142130A8FCF722F9C0216846CE
:10469000FCF71EF93C49122730680025394C4FF0D1
:1046A000040888422BD1002021950821CDE9001073
:1046B000684600F0C3FA08B1FDF7A6FD206840F097
:1046C0000200206020684FF44071CDE9301700F0FF
:1046D00002000122CDE93225CDE934802B4830A9F2
:1046E000FFF790FC27480830016841F40011016091
:1046F000006800F40010359036B0BDE8F081244920
:104700008842F9D1002026951021CDE90010684695
:1047100000F094FA08B1FDF777FD206840F008003A
:10472000206020684FF44051309130A900F008001B
:10473000CDE931753395CDE934801648FFF762FC39
:1047400010481430016841F08001016000680D21BB
:10475000114C4FF4806200F0800035900F489310A8
:10476000D70184E82300C4E903522762204665612B
:10477000C4E90653FEF7F2FD08B1FDF745FDF46309
:10478000A663B9E7E0440258005400400004025810
:10479000001C0058000C0258F04100240854025834
:1047A0000248816802781144816070470802002441
:1047B000032010B500F0B0F801F0B8F80F4A104926
:1047C00014681368C4F3032203F00F038A5CC95C06
:1047D00002F01F0201F01F01D0400A4A20FA01F145
:1047E0001160094908600F2000F010F808B101209D
:1047F00010BD00F051F8002010BD00001844025810
:1048000030EE0008180200241402002410B510280D
:1048100004468AB02CD200220146372000F05CF812
:10482000372000F04BF8174804601748016841F042
:1048300020010160006809A900F020000890684686
:1048400001F000F80598B0B101F04CF840000F49B4
:1048500000220F4CB0FBF1F10E4840F2E733046048
:10486000C0E90332491EC0E9011201F09BFF28B1E3
:1048700001200AB010BD01F035F8E8E7054802F064
:1048800023F8F6E70C020024E844025840420F00E7
:1048900000140040544A0024074882B0016841F0E7
:1048A00002010160006800220F2100F00200009068
:1048B000901E02B000F010B8F4440258002809DB42
:1048C000410900F01F028900012001F1E021904020
:1048D000C1F80001704700000E4BF0B41B680D4694
:1048E000C3F30223C3F10706042E00D90426191DC1
:1048F000072901D2002300E0DB1E012404FA06F19F
:104900009C40491E2940641E994014402143F0BC3C
:1049100006F0B4BD0CED00E0064900F0070210B54A
:104920004FF6FF040868044B204040EA0220184379
:10493000086010BD0CED00E00000FA05134970B5E9
:104940000A68D243520705D5096801F00701814280
:1049500013D118E00A6822F0070202430A60FFF749
:1049600073FC0A4D4FF47A760446083D07E000BF19
:10497000FFF76AFC001BB04201D9012070BD286816
:10498000C0438004F4D4002070BD00000C480258DD
:1049900010B500F085FF05490968054AC1F3021109
:1049A000515C01F01F01C84010BD000020440258B6
:1049B00030EE0008494930B5484C0B1D0A681434E4
:1049C00009681D68246802F00303C5F30012C1F3EF
:1049D0000531C4F3CC04002914FB02F200EE102AC6
:1049E000F8EE400A75D03F4A9FED3D1AB7EE000A37
:1049F0006BB1DFED3D1A012B01D0022B64D002EE2A
:104A0000101A1168F8EE422A81EEA22A21E0334CF6
:104A1000283C23689B0612D5344B246801EE901A7B
:104A20001168C4F3C104F8EE612AE34001EE903A44
:104A3000C1F30801F8EE611A81EEA22A0BE001EE43
:104A4000901ADFED2B2A00BFF8EE611A116882EE92
:104A5000A12AC1F3080101EE901A1168F8EE611A5B
:104A600040EE811A71EE800A62EE200AC1F34621FF
:104A700001EE101AB8EE411A31EE001AC0EE811A9A
:104A8000BCEEE11A80ED001A1168C1F3064101EE97
:104A9000101AB8EE411A31EE001AC0EE811ABCEEBF
:104AA000E11A80ED011A1168C1F3066101EE101AD6
:104AB000B8EE411A31EE000A80EE801ABCEEC10A4F
:104AC00080ED020A30BD04E001EE901ADFED092A04
:104AD000BAE70021016041608160F3E72844025891
:104AE00000000039384402580024744A0090D00372
:104AF0000024744C20BCBE4B494930B5484C0B1DBA
:104B00000A681C3409681D68246802F00303C5F3B1
:104B10000022C1F30551C4F3CC04002914FB02F2B6
:104B200000EE102AF8EE400A75D03F4A9FED3D1A7C
:104B3000B7EE000A6BB1DFED3D1A012B01D0022B5D
:104B400064D002EE101A1168F8EE422A81EEA22A11
:104B500021E0334C283C23689B0612D5344B246853
:104B600001EE901A1168C4F3C104F8EE612AE34023
:104B700001EE903AC1F30801F8EE611A81EEA22A23
:104B80000BE001EE901ADFED2B2A00BFF8EE611A60
:104B9000116882EEA12AC1F3080101EE901A116892
:104BA000F8EE611A40EE811A71EE800A62EE200A78
:104BB000C1F3462101EE101AB8EE411A31EE001A87
:104BC000C0EE811ABCEEE11A80ED001A1168C1F343
:104BD000064101EE101AB8EE411A31EE001AC0EE8D
:104BE000811ABCEEE11A80ED011A1168C1F3066169
:104BF00001EE101AB8EE411A31EE000A80EE801A6A
:104C0000BCEEC10A80ED020A30BD04E001EE901A4C
:104C1000DFED092ABAE70021016041608160F3E716
:104C20002844025800000039404402580024744AC5
:104C30000090D0030024744C20BCBE4B2DE9FE4FE5
:104C40000546DFF8E48350F8081B0024F64FC943FB
:104C5000019005F12800264608F12408009008017B
:104C60001DD4A86E50B1B0F5801F0CD0B0F5001F58
:104C70000ED0B0F5401F1ED001240FE0386840F47C
:104C80000030386017E00198022104F003FB03E0D4
:104C90000098022104F08EFB04000CD026462888E0
:104CA000C043C00523D4A86D05281ED2DFE800F05C
:104CB0000C11161B1B00AA6ED8F8001021F440112D
:104CC0001143C8F80010EAE7386840F40030386053
:104CD00009E00198002104F0DDFA03E000980021CA
:104CE00004F068FB044674B100E0012426462888DD
:104CF000C043800528D4E86D80281ED00CDC90B11C
:104D000040280ED114E0AA6DD8F8001021F0070158
:104D10001143C8F80010EAE7C02813D0B0F5807F2F
:104D200010D001240FE0386840F40030386009E00A
:104D30000198002104F0AEFA03E00098002104F08D
:104D400039FB04469CB126462888DFF8DC92C04334
:104D500009F12C0940052CD4D5F8A800B0F5800F36
:104D600020D00DDCA0B1B0F5001F0FD115E0EA6D29
:104D7000D8F8001021F4E0711143C8F80010E3E7FF
:104D8000B0F5C00F13D0B0F5000F10D001240FE024
:104D9000386840F40030386009E00198002104F0E0
:104DA00079FA03E00098002104F004FB04467CB18A
:104DB00026462888C04300052DD4D5F8AC00B0F1B4
:104DC000007F21D00EDCA8B1B0F1807F10D116E0B9
:104DD000D5F8A820D9F8001021F460011143C9F8D2
:104DE0000010E6E7B0F1407F13D0B0F1806F10D033
:104DF00001240FE0386840F40030386009E0019881
:104E0000002104F047FA03E00098002104F0D2FAF0
:104E1000044674B126462868C04380011FD4E86C5C
:104E2000D8B110280FD0202812D0302815D0012456
:104E300014E0D5F8AC20D9F8001021F0E06111435E
:104E4000C9F80010E7E7386840F40030386004E043
:104E50000198022104F01EFA044674B126462888FF
:104E6000C043C0042BD4286EB0F5005F20D00DDC09
:104E7000A0B1B0F5805F0FD115E06B48EA6C20302F
:104E8000016821F0300111430160E8E7B0F5405FAF
:104E900013D0B0F5804F10D001240FE0386840F4F3
:104EA0000030386009E00198002104F0F3F903E0D4
:104EB0000098002104F07EFA04468CB1264628882A
:104EC000C043800429D4686EB0F5403F23D010DC85
:104ED00008B3B0F5803F14D0B0F5003F0FD115E016
:104EE0002A6ED8F8001021F4E0411143C8F80010F0
:104EF000E5E7B0F5802F0ED0B0F5A02F0BD0012440
:104F00000AE00198012104F0C5F903E000980121AD
:104F100004F050FA044694B126462888C043400461
:104F20002AD4D5F8B000B0F1405F23D010DC08B32C
:104F3000B0F1805F14D0B0F1005F0FD115E06A6E60
:104F4000D8F8001021F4E0211143C8F80010E4E77C
:104F5000B0F1804F0ED0B0F1A04F0BD001240AE089
:104F60000198012104F096F903E00098012104F072
:104F700021FA044674B126462888C04300041FD491
:104F8000286FD8B1B0F1805F0ED0B0F1005F10D0C3
:104F9000012414E0D5F8B020D9F8001021F0E04148
:104FA0001143C9F80010E7E7386840F40030386072
:104FB00004E00198012104F06DF9044674B126461D
:104FC0002868C043C0011ED4A86CD0B101280ED0FF
:104FD000022811D0032814D0012413E02A6FD8F836
:104FE000001021F040511143C8F80010E8E738687C
:104FF00040F40030386004E00198022104F04AF9DE
:105000000446ACB126462868DFF81CB0C043ABF1BB
:105010001C0B400252D40548016841F480710160C4
:10502000FFF712F9824611E02C440258004802585A
:10503000FA48AA6C016821F0030111430160E2E71C
:10504000FFF702F9A0EB0A00642835D8F44800689D
:10505000C005F5D58CBBDFF8C4A3B5F8B4100AF1D0
:10506000240ADAF8000001F4407100F4407088422C
:1050700011D0DAF80010DAF8002021F4407142F47F
:105080008032CAF80020DAF8002022F48032CAF810
:105090000020CAF80010D5F8B400B0F5807F1AD10E
:1050A000FFF7D2F8029012E0FFF7CEF80299411A0A
:1050B00041F2883081420AD9032426462878DFF855
:1050C0005CA3C0430AF1080AC00721D03CE0DAF82B
:1050D00000008007E8D5D5F8B410C1F301200328FB
:1050E00058460DD0016821F47C510160B5F8B42018
:1050F000DAF80010C2F30B021143CAF80010DDE722
:10510000C84A036802EA111223F47C511143ECE708
:10511000E86F182816D005DCA0B1082808D01028A0
:1051200004D10AE020280DD028280BD001240AE061
:105130000198012104F0AEF803E00098012104F089
:1051400039F9044664B126462878C04380071ED446
:10515000A86F062819D2DFE800F0160C11161616F3
:10516000EA6FDAF8001021F038011143CAF8001094
:10517000EAE70198012104F08DF803E0009801218D
:1051800004F018F904467CB100E001242646287892
:10519000C04340071FD4D5F89400062819D2DFE891
:1051A00000F0160C11161616AA6FDAF8001021F08E
:1051B00007011143CAF80010E9E70198012104F042
:1051C00069F803E00098012104F0F4F80446A4B162
:1051D00000E0012426462878C04380062BD4D5F869
:1051E0009000B0F1405F24D011DC10B3B0F1805FCB
:1051F00015D0B0F1005F10D116E0D5F89420D9F8A1
:10520000001021F007011143C9F80010E3E7B0F1E5
:10521000804F0ED0B0F1A04F0BD001240AE00198CE
:10522000002104F037F803E00098022104F0C2F8EE
:10523000044694B126462878C04340062BD4D5F8BE
:105240009C00B0F5406F24D011DC10B3B0F5806F36
:1052500015D0B0F5006F10D116E0D5F89020DAF82F
:10526000001021F0E0411143CAF80010E3E7B0F567
:10527000805F0ED0B0F5A05F0BD001240AE001984A
:10528000002104F007F803E00098022104F092F8EE
:10529000044694B126462878C04300062BD4D5F89E
:1052A000A000B0F5C04F24D011DC10B3B0F5005F02
:1052B00015D0B0F5804F10D116E0D5F89C20D9F864
:1052C000001021F4E0511143C9F80010E3E7B0F5F4
:1052D000004F0ED0B0F5204F0BD001240AE001980A
:1052E000002103F0D7FF03E00098022104F062F8E8
:1052F000044654B126462878C04300071ED4D5F88A
:105300008400B0F5805F0AD00FE0D5F8A020D9F86E
:10531000001021F460411143C9F80010EBE7009838
:10532000022104F047F800B10126D5F88420DAF80C
:10533000001021F440511143CAF800102878C043EE
:10534000C00613D4D5F89800B0F5807F05D1009839
:10535000022104F02FF800B10126D5F89820D9F8E1
:10536000001021F440711143C9F800102868C043AF
:10537000000316D4D5F8A40038B1B0F5803F09D0A9
:10538000B0F5003F0BD001240AE00198002103F0A2
:1053900081FF03E00098022104F00CF804468CB170
:1053A00026462868C043400322D4D5F88800B0F5CB
:1053B000801F11D0B0F5001F13D0B0F5401F15D0DD
:1053C000012414E0D5F8A420D9F8001021F44031CC
:1053D0001143C9F80010E4E7386840F40030386041
:1053E00004E00098012103F0E5FF04465CB1264685
:1053F0002868C043C00323D4286DA8B1B0F5803F0E
:1054000017D001241BE0D5F88820DAF8001021F429
:1054100040111143CAF80010EAE700004C4402585A
:1054200000480258CFFFFF00386840F40030386071
:1054300004E00198022103F02DFF0446E4B1264662
:105440002868C043800005D40098022103F0B2FF11
:1054500000B101262868C04380031BD4D5F8800022
:10546000B0B1B0F5807F0FD0B0F5007F10D0B0F5AF
:10547000407F0DD001240CE05A482A6D016821F4C8
:10548000803111430160DBE7386840F40030386058
:10549000ECB326462868C043C00207D46A6FD8F828
:1054A000001021F000411143C8F800102868C043E3
:1054B000C00008D4D5F8B820DBF8001021F48041F2
:1054C0001143CBF800102868C043800207D4EA6E6D
:1054D000D8F8001021F080711143C8F80010286836
:1054E000C04340000CD4DBF8001021F40041CBF89D
:1054F0000010DBF80010D5F8BC201143CBF80010E9
:105500002868C04308D437486A6D016800E018E095
:1055100021F04051114301602868C043000208D4C3
:10552000D5F88C20DAF8001021F440011143CAF8B4
:10553000001028790024C04300F0010020430AD065
:105540000FE0D5F88020DAF8001021F44071114303
:10555000CAF800109EE70198002103F09BFE00B1FD
:1055600006462879C04300F00200204305D1019887
:10557000012103F08FFE00B106462879C04300F0F8
:105580000400204305D10198022103F083FE00B1FD
:1055900006462879C04300F00800204305D1009852
:1055A000002103F007FF00B106462879C04300F050
:1055B0001000204305D10098012103F0FBFE00B14B
:1055C00006462879C04300F02000044304D1009827
:1055D000022103F0EFFE00B916B10120BDE8FE8FF5
:1055E0000020FBE74C4402582DE9F05F04000F4611
:1055F0007ED0DFF83882D8F8000000F00F00B84203
:105600000CD2D8F8001021F00F013943C8F800106F
:10561000D8F8000000F00F00B84269D12078844D1E
:1056200040070AD52069296801F07001884204D931
:10563000296821F070010143296020787C4E361DD5
:1056400000070AD56069316801F07001884204D909
:10565000316821F07001014331602078C0060AD51D
:10566000A069316801F4E061884204D9316821F40D
:10567000E061014331602078DFF8B4B180060BF1BE
:10568000080B0CD5E1695846DBF8002002F07002E7
:10569000914204D9026822F070020A430260207825
:1056A00080070AD5E068296801F00F01884204D913
:1056B000296821F00F01014329602078C0073ED0FE
:1056C0005B49A2682868183920F47060104328608C
:1056D0006068022818D0032819D00968012819D059
:1056E000490700294ADADFF848A1AAF1080A00E0D0
:1056F00044E0DAF8002022F007020243CAF8002052
:10570000FEF7A2FD814612E009688903E9E709680E
:105710008901E6E7C905E4E7FEF796FDA0EB09017C
:1057200041F28830814202D90320BDE8F09F6168D0
:10573000DAF8000000F03800B0EBC10FECD12078AF
:1057400080070AD5E068296801F00F01884204D279
:10575000296821F00F0101432960D8F80010404664
:1057600001F00F01B9420BD9016821F00F01394353
:105770000160006800F00F00B84201D00120D4E7BA
:10578000207840070AD52069296801F07001884215
:1057900004D2296821F070010143296020780007B4
:1057A0000AD56069316801F07001884204D231681D
:1057B00021F07001014331602078C0060AD5A0694C
:1057C000316801F4E061884204D2316821F4E0617B
:1057D00001433160207880060CD5E1695846DBF83A
:1057E000002002F07002914204D2026822F070029E
:1057F0000A43026000F09AF80E492A682B68C2F347
:10580000032203F00F038A5CC95C02F01F0201F05F
:105810001F01D040084A20FA01F1116007490860D1
:1058200007480068BDE8F05FFEF7F0BF00200052B7
:105830001844025830EE0008180200241402002414
:105840000C02002470B5144C3F220260124A2468F6
:105850000832131D114D04F00704446016681C1D26
:1058600006F470668660166806F00F06C660126859
:1058700002F0700202611A6802F0700242611A6856
:1058800002F4E0628261226802F07002C26128685C
:1058900000F00F00086070BD104402580020005254
:1058A00030B500F043F80B4A0B490C4B15681468EF
:1058B000C5F3032204F00F048A5C095D02F01F02A5
:1058C00001F01F01D040064A20FA01F11960106072
:1058D000084630BD1844025830EE00081802002473
:1058E0001402002400B5FFF7DBFF05490968054AEB
:1058F000C1F30211515C01F01F01C84000BD00005E
:105900001C44025830EE000800B5FFF7C9FF0549F6
:105910000968054AC1F30221515C01F01F01C8402A
:1059200000BD00001C44025830EE0008454970B527
:1059300045480968434B103B11F0380208D001116B
:10594000082A03D0102A0BD0182A0BD0084670BDA5
:1059500019688906FBD51968C1F3C101C84070BD3B
:105960003A4870BD3749374D18310C1D24350A6847
:10597000096826682D6802F0030406F00102C1F3ED
:105980000511C5F3CC0515FB02F200EE102AB8EEA6
:10599000400AE9B32F4ADFED2E0AB7EE001A6CB1C8
:1059A000DFED2D1A012C01D0022C43D002EE101A8B
:1059B0001068F8EE422A81EEA22A1EE01C68A406B6
:1059C00011D51B6801EE901A1168C3F3C103F8EEFC
:1059D000612AD84001EE900AC1F30800F8EE611A7E
:1059E00081EEA22A0BE001EE901ADFED1C2A00BF27
:1059F000F8EE611A106882EEA12AC0F3080001EEE9
:105A0000900AF8EE611A40EE201A31EE810A00E0A9
:105A100015E022EE000A1068C0F34620401C00EE9C
:105A2000900AF8EE600A80EE201ABCEEC10A10EE71
:105A3000100A70BD01EE901ADFED092AD8E70020A8
:105A400070BD0000104402580090D00340787D01E2
:105A500000000039304402580024744A0024744C79
:105A600020BCBE4BF0B50D461F49204C002887B026
:105A700016464FF000004FF002020F684FF003038C
:105A800019D047F004070F60096801F0040105917F
:105A900011020091CDE90120CDE903301448694697
:105AA000FEF7B0FA206845EAC61120F07E400843B0
:105AB000206007B0F0BD47F001070F60096801F0F2
:105AC000010105914FF480710091CDE90120CDE9EC
:105AD000033008486946FEF795FA2068354320F000
